S01E000052544F532D4F4C45442D58706C61696E65642D50726F2E73726563AD
S214400000502E4020C91B4000C71B4000C71B400065
S214400010C71B4000C71B4000C71B40000000000035
S214400020000000000000000000000000A11F40008B
S214400030C71B40000000000041204000A9204000AF
S214400040C71B4000C71B4000C71B4000C71B4000E3
S214400050C71B4000C71B4000C71B4000C71B4000D3
S214400060C71B400000000000B9184000CD184000F3
S214400070E1184000C71B4000C71B4000C71B40009C
S214400080F518400009194000C71B4000C71B400038
S214400090C71B4000C71B4000C71B4000C71B400093
S2144000A0C71B4000C71B4000C71B4000C71B400083
S2144000B0C71B4000C71B4000C71B4000C71B400073
S2144000C0C71B4000C71B4000C71B4000C71B400063
S2144000D000000000C71B400000000000C71B400097
S2144000E0C71B4000C71B4000C71B4000C71B400043
S2144000F0C71B4000C71B4000C71B4000C71B400033
S214400100C71B4000C71B4000C71B4000C71B400022
S214400110C71B400000000000000000000000000078
S214400120C71B4000C71B4000C71B4000C71B400002
S214400130C71B400000000000C71B4000C71B400014
S21440014010B5054C237833B9044B13B10448AFF3CC
S21440015000800123237010BDC80940200000000025
S214400160DCC440000C4B43B10C480D4910B5AFF30E
S21440017000800C48036823B910BD0A48036833B9A9
S2144001807047094B002BF7D0BDE810401847064B88
S214400190002BF5D0184700BF00000000DCC440002C
S2144001A0CC094020DCC440000000000008B5074BE6
S2144001B0984203D0064B984204D008BD1520054B04
S2144001C0984708BD2A20034B9847F6E70080004032
S2144001D0008005403D1A4000436823F47023436086
S2144001E04368090401F4702119434160704730B4F4
S2144001F043F69924056915F0020F03D1013CF9D165
S21440020001200CE0446814F0020F06D0120402F4F9
S214400210702211430BB141F08071C160002030BCA8
S214400220704732B900EB8100036B23F00103036390
S214400230704700EB8100036B43F001030363704794
S21440024032B900EB8100036B23F00203036370476F
S21440025000EB8100036B43F0020303637047042AFC
S21440026003D06AB1082A16D0704700EB8100036BB2
S21440027023F008030363036B43F0040303637047F0
S21440028000EB8100036B23F008030363036B23F04A
S21440029004030363704700EB8100036B43F00803DD
S2144002A00363E1E700EB81010B6B23F0F0030B6384
S2144002B00B6B1A430A637047431E1944B1FBF0F0B8
S2144002C0431EFE2B94BF00B24FF0FF3070477AB10A
S2144002D010B4144600EB81010B6B23F47F430B6391
S2144002E00A6B42EA04220A6300205DF8044B70471A
S2144002F04FF0FF3070470000284B99424BD8A3F58B
S2144003007A5399422DD910B4254CA4FB0234A40B41
S214400310033C244B0B449B00B2FBF3F2033AFF2C06
S2144003201DD9002101316408FF2C01D90629F9D9CD
S214400330FF2A07D9062905D801315208FF2A01D9D4
S2144003400629F9D913029BB2090401F4E0210B43B4
S214400350E4B22343036100205DF8044B704700215C
S214400360E6E74900B2FBF1F2033AFF2A11D900232F
S21440037001335208FF2A01D9062BF9D9110289B256
S2144003801B0403F4E0230B43D2B21A43026100205D
S21440039070470023F2E70120704700BF801A06002E
S2144003A0F11976050012FD3F08B54FF0FF32826224
S2144003B0026A80220260026B0822026020220260EB
S2144003C0042202600A684968034B9847012814BF14
S2144003D00020012008BD00BFF9024000CA68002A7C
S2144003E04CD070B48C68002646604B681B0203F401
S2144003F0407343F480530D7C2D0405F4FE052B43D7
S2144004004360C6604D685DB10B78012D02DD4E78C5
S21440041046EA0323022D04DD897841EA032300E0FF
S2144004200023C36001230360022512E0056013F039
S214400430020F1BD0036B2370036A13F0010FFBD02F
S214400440036A002070BC7047036B04F8013B013A16
S214400450F2D0036A13F4807F14D147F23051012A58
S214400460E4D013F0020FEFD1002AE5D0036A13F46C
S214400470807F05D10139F2D10920E3E7012070479A
S2144004800520DFE70520DDE7CB68002B43D070B4BE
S2144004908C68002646600A7C120402F4FE024D6810
S2144004A02D0205F440752A434260C6604D685DB132
S2144004B00A78012D02DD4E7846EA0222022D04DD3E
S2144004C0897841EA022200E00022C26004E014F883
S2144004D0012B4263013B0FD0026A12F4807F1ED18B
S2144004E012F0040FF3D1026A12F4807F15D112F095
S2144004F0040FECD1002BF6D1036A13F4807F11D1A0
S21440050013F0040FF8D002230360036A13F0010FC0
S214400510FBD0002004E001207047052000E00520C5
S21440052070BC70470520FBE700B587B0002306AADD
S21440053002F8153D0392012204928DF814108DF8AE
S2144005400430029301A9024B984707B05DF804FBBC
S214400550890440004FF07E53436100238361C361AA
S214400560036243628362C362012280F830200A4AF3
S2144005704263C363036443648364C36403650023C4
S21440058080F85430836580F85C3080F85D300366D0
S21440059080F86430704700BF0000204138B52DED2C
S2144005A0028B04460D460B78037091ED018A80ED70
S2144005B0018AD1ED027AF5EE407AF1EE10FA01D0DA
S2144005C00B6903BB234BA360D5ED037AF5EE407A67
S2144005D0F1EE10FA01D02B6943BB1E4BE3602B694A
S2144005E0236194F830300BB984ED0D8AF2EE047A2C
S2144005F077EEC87AF0EE086A87EEA67A84ED0E7A31
S214400600BDEC028B38BD9FED147A67EE877A17EE05
S214400610900A124B9847F6EE007A07EE100A67EEFD
S214400620277A67EEA77AC4ED027ACDE79FED0A7A7D
S21440063067EE877A17EE900A084B9847F6EE007AF0
S21440064007EE100A67EE277A67EEA77AC4ED037ABC
S214400650C5E700BFFFFF7F7F35FA8E3CB1454000BF
S21440066070B586B0064601AC064D0FCD0FC42B685C
S214400670236001A93046044B98473046034B9847C1
S21440068006B070BD30BC40009D054000550540009A
S21440069010B4044614310FC984E80F0020465DF8B4
S2144006A0044B704710B52DED048B044608EE101A27
S2144006B090ED087AD0ED077A67EEA76AB6EE009A14
S2144006C079EE666A27EE076AD0ED055A27EE257A58
S2144006D0D0ED065A67EEA57A76EEC66A16EE901A02
S2144006E077EE277A17EE900A2F4B9847DFED2F8A42
S2144006F068EE288A07EE900A77EEE88A68EE898ADE
S21440070018EE900A2A4B984708EE100A18EE900A00
S214400710284B984707EE900AB1EE675A94ED056A63
S214400720D4ED065AD4ED077AD4ED084A9FED227AE6
S21440073025EE874A67EE873A26EE073A24EE877A12
S21440074068EE066A76EEC46A76EEE36A65EE242ABA
S21440075076EEE26AC4ED056A68EE256A76EE836A4E
S21440076076EE876A67EE852A76EEE26AC4ED066A1A
S21440077068EE277A77EEC77A77EE837A65EE855A03
S21440078077EEA57AC4ED077A28EE248A38EE238AD7
S21440079038EE448A26EE056A38EE068A84ED088AE4
S2144007A0BDEC048B10BD00BF8947400035FA8E3C37
S2144007B039454000B14540000000000070B52DEDC1
S2144007C00A8B90B0044605A880E80E009DED249A5A
S2144007D004F124031EAA07CA83E8070094F83030C1
S2144007E0BBB1D4ED0E7A29EE277AD4ED0D7A77EEAA
S2144007F0C77AC4ED0D7A94ED017AF4EEC77AF1EE3D
S21440080010FA06D584ED0D7A002384F8303084F84B
S2144008105C302378012B08D9022B6FD09FED9FAA1E
S214400820F0EE4AAAB0EE4ABA1DE094ED067A94ED90
S21440083008AA94ED056AD4ED07AA27EE0ABA66EE32
S2144008402A7A3BEE67BA6AEE2AAA27EE067A7AEE4C
S21440085087AA26EE066AB6EE007A36EE477A2AEE83
S2144008600AAA37EE0AAA012384F85430DDED1E9A10
S2144008709DED1F8ADDED208AF5EE409AF1EE10FAE6
S21440088018BF0023B5EE408AF1EE10FA03F00103DC
S21440089018BF0023002B52D0F5EE408AF1EE10FA36
S2144008A04DD19FED7E8AF0EE488AF0EE489A0123BD
S2144008B084F85D309DED21CADDED22CADDED23BA18
S2144008C0F5EE40CAF1EE10FA18BF0023B5EE40CA66
S2144008D0F1EE10FA03F0010318BF0023002B00F0DE
S2144008E0AA80F5EE40BAF1EE10FA40F0A480DFEDB3
S2144008F06B5AF0EE656AB0EE656A67E194ED057A8C
S214400900D4ED075A94ED065A94ED086A27EE25BAB8
S21440091065EE067A3BEE67BA65EE86AA27EE055A7E
S2144009207AEE85AAF1EE6AAA27EE077AB6EE00AA14
S2144009303AEE477A26EE066A37EE46AA93E7A26D67
S21440094023699A4259D869EEA97A28EE087A77EE52
S214400950877A28EEA87A77EE877A514B17EE902A58
S214400960A3EB620306EE903A9FED4E7A67EE877AE7
S21440097067EEA67A67EEA67A9FED4B7A77EE677AB1
S21440098067EEA67A27EEA95A67EE885A68EEA78AD7
S21440099025EE8A7A6AEEA87A77EE679A68EE8B8AB0
S2144009A065EE0A6A78EEE68A2AEE858A65EE8B5A06
S2144009B038EE658AC4ED0F9AC4ED108A84ED118A2C
S2144009C094F8303073B969EEA97A28EEA87A77EEB3
S2144009D0877A48EE087A94ED027AF4EEC77AF1EE1A
S2144009E010FA1ED8002384F85430A36D092B8CBF10
S2144009F00A2200229B1AA36559E709AE04F11405A2
S214400A0095E80F0086E80F002046284B984796E862
S214400A100F0085E80F000023A365012384F85C30AF
S214400A2091E7A36D0133A3659FED1C8AF0EE488ADB
S214400A30F0EE489A3BE7002384F86430226E236940
S214400A409A420FD82378012B00F05781002B33D0E1
S214400A50022B00F07381DFED114AF0EE643AB0EEFF
S214400A60644A47E025788DED0DBACDED0EAA8DEDA2
S214400A700FAA21AB93E807008DE8070010AB13E9F7
S214400A800E0028460A4DA84701462046094B98477F
S214400A9000232366012384F86430D3E70000000077
S214400AA012141F5F12D3363FFF51D83F5505400002
S214400AB0050E4000A5064000D4ED066AD4ED077A40
S214400AC0D4ED054A94ED086A26EEA74A24EE867AC7
S214400AD034EE074A64EEA45AF6EE003A75EEE35A50
S214400AE067EEA73A75EEA33A67EE867A66EEA46A94
S214400AF077EEE64A2AEEAB6A6CEE8A7A36EE676A9C
S214400B002CEE0A7A6BEE2BBA37EE6B7A6BEE2C7ABB
S214400B106AEE8C6A77EEE66A26EE065A67EE077A43
S214400B2035EE275A66EEA67A35EE275A994B15EEDD
S214400B30102AA3EB620305EE903ADFED977A25EE96
S214400B40275A25EE255A25EE255ADFED947A77EE7C
S214400B50C57A67EEA57A67EE865A27EE877A67EEFD
S214400B60A67A27EE246A67EEA36A36EE666A67EED2
S214400B70847A65EEA46A77EEE66A65EEA35A27EEB7
S214400B80047A75EEC75A84ED126AC4ED136AC4ED52
S214400B90145A94F830307BB966EE067A26EEA67A7A
S214400BA077EE877A45EEA57A94ED037AF4EEC77A27
S214400BB0F1EE10FA00F2E380002384F85D30236EF5
S214400BC0092B8CBF0A2200229B1A2366D4ED0D7A8D
S214400BD036EE297A27EE277A9FED715A9DED056A03
S214400BE026EE056A37EE067A27EE097A78EEA66A8A
S214400BF066EEA76ADDED068A68EE858A76EEA86A16
S214400C0066EE896A38EE258A28EE278ADDED077A71
S214400C1067EE857A38EE278A68EE097A94ED053ACB
S214400C20D4ED063A94ED074A94ED085A63EEC75A57
S214400C3026EE846A75EEC65A27EE856A75EEC65A63
S214400C4075EE835A67EE034A27EE846A74EE864A48
S214400C5026EE856A74EEC64A74EEA34A26EE836A8A
S214400C6067EEA32A36EE626A67EE052A36EE226AF9
S214400C7036EE046A67EE837A66EEA36A77EEA67A65
S214400C8027EE047A77EEC77A77EE857A25EEA57A50
S214400C9064EEA46A37EE267A66EE066A37EE267A61
S214400CA067EEA76A37EE267A3A4B17EE102AA3EB82
S214400CB0620305EE103ADFED386A27EE267A27EE15
S214400CC0057A27EE057ADFED356A36EEC77A27EEE7
S214400CD0057A67EE255AC4ED055A67EE246AC4EDD8
S214400CE0066A27EE066A84ED076A27EE277A84EDC1
S214400CF0087A10B0BDEC0A8B70BDD4ED056AD4ED11
S214400D00067A26EEA64AB6EE007A37EE447A27EE04
S214400D10A74A37EE444AD4ED084A94ED075A66EEA1
S214400D20A45A27EE857A75EEC73A67EEA44A66EE71
S214400D30856A74EEA64AF1EE644ADBE6D4ED066AAE
S214400D40D4ED077AD4ED054A94ED086A26EEA77AE4
S214400D5024EE864A37EE047AB1EE474A64EEA43A69
S214400D60F6EE005A75EEE35A67EEA73A75EEE33AAA
S214400D7066EEA46A67EE867A76EEE74ABAE6236EB1
S214400D8001332366DFED075AF0EE656AB0EE656A1A
S214400D901CE700BF12141F5F12D3363FFF51D83FE7
S214400DA035FA0E3C0000000030B591B0054609AC5F
S214400DB084E80E0000230D930E930F93179B069323
S214400DC003AB10AA12E9070083E8070014AB93E8C8
S214400DD007008DE8070094E80E002846074CA04719
S214400DE095F8303013B195F85C300BB111B030BD8A
S214400DF000212846024B9847F8E700BFBD07400051
S214400E00A506400000B585B00DF1100E0EE90E00A7
S214400E10DDED014ADDED027A9DED037A9DED065A41
S214400E20DDED075A9DED084A01287CD028B10228FE
S214400E3000F0ED80DFEDB27A70E067EE843A67EE60
S214400E40256A73EEE63A67EE056A24EE844A36EE85
S214400E50C44A24EEA56A27EE855A36EE455A63EE16
S214400E60A35A64EE046A75EEA65A65EE056A75EEF8
S214400E70A65AA44B15EE902AA3EB620206EE102A61
S214400E80DFEDA12A65EEA25A65EE865A65EE865AD1
S214400E909FED9E3A73EE655A25EE866A66EE235AB5
S214400EA026EE044A26EE056A24EE075A66EE276AC0
S214400EB035EE665A26EE246A25EE877A36EE476A7F
S214400EC065EEA77A24EE244A37EEC44A25EE057A24
S214400ED026EE066A37EE066A24EE044A36EE046AC2
S214400EE016EE102AA3EB620307EE903A26EE226A2D
S214400EF026EE276A26EE276A33EE466A26EE276AED
S214400F0066EE057A17EE901A15EE900A804B9847D3
S214400F10DFED807A07EE100A67EE277A17EE900A22
S214400F2005B05DF804FB67EE843A67EE256A73EE1B
S214400F30E63A67EE056A24EE844A36EEC44A64EE24
S214400F40A55A67EE856A75EEE65A23EEA36A64EE06
S214400F50046A36EE266A65EEA56A36EE266A694B60
S214400F6016EE102AA3EB620206EE902ADFED662A02
S214400F7026EE226A26EE266A26EE266A9FED633A1B
S214400F8033EE466A66EE266A26EEA35A26EE844A74
S214400F9066EEA56A64EE075A26EEA76A75EEC65A4E
S214400FA066EEA46A25EE077A76EEC76A65EE277A7D
S214400FB024EE244A37EEC44A25EEA57A66EEA66AA3
S214400FC077EE266A24EE044A76EE846A16EE902A77
S214400FD0A3EB620307EE903A66EEA26A66EEA76A55
S214400FE066EEA76A73EE666A66EEA76AF1EE457A23
S214400FF017EE901A66EEA57A17EE900A444B98477D
S214401000DFED447A07EE100A67EE277A86E7F1EEC0
S214401010644AF1EE677AB1EE476A27EE843A26EEE6
S214401020257A33EE473A66EE053A24EE844A33EEA6
S214401030C44A64EEA55A27EE855A75EEC55A63EE45
S214401040036A24EE047A76EE876A25EEA57A76EE73
S214401050876A2C4B16EE902AA3EB620207EE102A04
S214401060DFED292A66EEA26A66EE876A66EE876A32
S214401070DFED263A73EEE66A26EE877A27EE035AC7
S21440108027EE044A27EE257A64EE065A67EE276A6C
S21440109075EEE65A27EE247A25EE066A37EE467A4D
S2144010A065EE277A24EE244A77EEC47A65EEA56A82
S2144010B027EE077A36EE877A67EEA77A37EE277AF4
S2144010C017EE102AA3EB620307EE903A27EE227A39
S2144010D027EE277A27EE277A33EEC77A27EE277A47
S2144010E067EE257A17EE901A15EE100A084B9847C9
S2144010F0DFED087A07EE100A67EE277A0EE700BFA4
S2144011000000000012141F5F12D3363FFF51D83F35
S21440111089474000E02E6542014B1860704700BF8B
S214401120E4094020024B1B6803EBC0104254704752
S214401130E4094020024B1B6803EBC010405C70473C
S214401140E409402070B504460D4616461BB90D4BC3
S2144011509847B04215D03246294620460A4B984713
S21440116004F00F0040F0B000084CA047C5F3021052
S21440117040F01000A04705F00F00A0473046044B53
S214401180984770BD3511400025114000E5114000DC
S214401190051440002DE9F0410D480E4B98470E4B84
S2144011A0984740200D4B984700254FF001082F46A2
S2144011B00B4E002443463A46E1B22846B047013437
S2144011C0802CF7D10135EDB2042DF2D1BDE8F08187
S2144011D0E80940201911400025124000E511400062
S2144011E04511400038B505460822094B5A63094C5C
S2144011F001212046084B984701231A462946204697
S214401200064CA0474FF4FD70054B984738BD00BFCD
S21440121000100E4000800040D9014000EF01400021
S214401220010040202DE9F843664D4FF400362E610C
S214401230C5F8A060644B08271F61C3F8A0706E66AF
S214401240C5F890606E656E62C5F880602A6F22F4BD
S21440125000322A676A6F22F400326A675F66C3F814
S21440126090705F655F62C3F880701A6F22F0080264
S2144012701A675A6F22F008025A671F602E601F6373
S2144012802E63DFF87C8100234FF480024FF08051BC
S21440129040464E4CA04700234FF400124FF080517A
S2144012A04046A04700234FF000724FF08051404622
S2144012B0A04700234FF480024FF080514046A0479D
S2144012C000234FF400124FF080514046A0470023C1
S2144012D04FF000724FF080514046A0473C4C4FF0D4
S2144012E00209C4F800904FF08008C4F80080636894
S2144012F043F0010363603A4601212046354B984748
S214401300002201212046344B9847002201212046E6
S214401310324B9847636823F0020363600022012142
S21440132020462F4B9847636823F0800363606368CA
S21440133043F0100363602B492B482C4B9847C2B2AE
S214401340012120462A4B984720462A4B984701239E
S21440135023606E6340F6B830274CA0472E6340F6B5
S214401360B830A0472E63A820244CA0471F20A04793
S214401370D320A0470020A0474020A047A120A04758
S214401380C820A047DA20A0474846A0478120A0476B
S2144013908F20A047A420A047A620A047D520A0473E
S2144013A04046A0478D20A0471420A047DB20A047FA
S2144013B04020A047D920A047F120A047AF20A04713
S2144013C0BDE8F88300120E4000100E40D1174000D2
S2144013D0008000405F02400023024000410240007F
S2144013E0A502400080D1F00880841E00B90240006B
S2144013F0CF024000AD01400001004020E511400012
S21440140000140E4038B505460822094B1A63094CAD
S21440141001212046084B984701231A462946204674
S214401420064CA0474FF4FD70054B984738BD00BFAB
S21440143000100E4000800040D9014000EF014000FF
S2144014400100402010B51048104B98473E21002020
S2144014500F4B98470F4CA0470028FCD00E4B9847A0
S2144014600E4A0F4B9A620F4CA0470028FCD0022031
S2144014700D4B984700200D4B98470D4B9847024818
S214401480024B984710BD00BF00A3E1119D1D4000D0
S214401490B91940000D1A40001D1A4000013F18209F
S2144014A000060E402D1A40001D19400055194000F8
S2144014B0911C40002DE9F04180B90C469046002A28
S2144014C00FDD8F18084E094D306821462B68984727
S2144014D00134BC42F8D14046BDE8F0814FF0FF38B9
S2144014E0F9E78046F7E700BFDC0D4020D40D4020EA
S2144014F00138022815D82DE9F0410E4614469AB117
S2144015000D46DFF838800C4FD8F8000015F8011B60
S2144015103B68984700280ADBA81B013CF4D1BDE88D
S214401520F0814FF0FF3070471046BDE8F0814FF035
S214401530FF30BDE8F08100BFD80D4020DC0D4020D4
S214401540F8B54FF400425C4B5A60BFF34F8FBFF381
S2144015506F8F5A4B0022C3F850225A6942F4003229
S2144015605A61BFF34F8FBFF36F8FD3F88070C7F3C6
S2144015704E3607F007000430C7F3C907B7FA87FEB0
S2144015800EF01F0EBFF34F8F4FF0FF3404FA00FCEF
S21440159006FA00F004FA0EF407FA0EFE1D463A4626
S2144015A0734640EA0301C5F86012013A2344B2F19B
S2144015B0FF3FF6D1013E6044B6F1FF3FEFD1BFF3A7
S2144015C04F8F3E4B5A6942F480325A61BFF34F8F79
S2144015D0BFF36F8F3A4A3B495160A1F58071516025
S2144015E0BFF34F8FBFF36F8FD3F8902222F00102E4
S2144015F0C3F89022D3F8942222F00102C3F8942232
S214401600BFF34F8FBFF36F8F0A202F4CA0470B209E
S214401610A0470C20A0471020A0471120A0472B4BE6
S2144016204FF480721A61C3F8A0201A63A3F5806352
S2144016304FF400625A61C3F8A0205A66C3F890205F
S2144016405A651A62C3F88420196F21F4006119673D
S214401650596F21F400615967C3F8C020C3F8D420FD
S214401660C3F8B0204FF400121A66C3F890205A65AB
S2144016705A62C3F88020196F21F400111967596F18
S21440168021F4001159675A60114AD2F8143143F0D8
S2144016901003C2F814310F4B10221A66C3F890207C
S2144016A05A655A62C3F88020196F11431967596FFB
S2144016B0114359675A60F8BD50180E4000ED00E0DF
S2144016C0000C0E400C08005A3D1A400000120E4016
S2144016D00080084000100E40016370474163704729
S2144016E04264B1F1C05F3AD013D8B1F1006F25D053
S2144016F0B1F1805F0AD1036F13430367436F416FB5
S2144017000B4023EA02034367426070470029FBD13F
S2144017107047B1F1205F21D009D8B1F1005FF3D115
S214401720036F13430367436F13434367ECE7B1F11B
S214401730405F13D0B1F1605F10D0E5E710B4016FA1
S214401740046FD34321401C4619400167436F416FE5
S2144017500B402340436742605DF8044B7047036F7D
S214401760016F0B4023EA02030367436F134343674B
S214401770CAE7416412F0010F0DD1016612F00A0F5C
S2144017800BD0016212F0020F09D112F0080F08D0F8
S214401790C0F8841005E04166F0E74162F2E7C0F821
S2144017A0801041610160704710B4019C41644CB99F
S2144017B001664BB101654AB94163016101605DF85C
S2144017C0044B70474166F4E74165F4E70163F4E78C
S2144017D070B582B0054616461C46B1F1005F14D07F
S2144017E00AD9B1F1405F24D0B1F1605F21D0B1F1A8
S2144017F0205F17D000201AE0B1F1805F05D0B1F12C
S214401800C05F02D0B1F1006FF4D132462846114B8A
S214401810984714F0010F02D12E66012007E06E664D
S214401820012004E01A4631460B4B9847012002B08F
S21440183070BD04F001030093C4F38003B1F1605F10
S21440184014BF0022012231462846044CA0470120FE
S214401850EDE700BFE116400073174000A9174000AF
S214401860C06C7047806C70472DE9F041044688464E
S2144018700E4B9847054620460D4B9847054013D0DB
S2144018800C4C04F1600603E0B4420DD010345DB158
S21440189020684045F8D161682942F5D0E36898470A
S2144018A0636825EA0305EFE7BDE8F081611840006C
S2144018B065184000E80B402008B50A210148024B55
S2144018C0984708BD000E0E406918400008B50B2129
S2144018D00148024B984708BD00100E40691840006A
S2144018E008B50C210148024B984708BD00120E402F
S2144018F06918400008B510210148024B984708BDBA
S21440190000140E406918400008B511210148024BEA
S214401910984708BD00160E4069184000032811D0AD
S214401920042812D002280CBF4FF480710021084AC8
S214401930136B23F440730B431363936E13F0080F3B
S214401940FBD070474FF44071F1E74FF40071EEE77B
S21440195000060E40174A136B23F0700318431063BB
S214401960936E13F0080F0AD14FF4805311498A6ED4
S21440197012F0080F03D1013BF9D1012070470D4A00
S214401980136B23F0030343F002031363936E13F0C9
S214401990080F0AD14FF4805306498A6E12F0080F9A
S2144019A005D1013BF9D10120704700207047002047
S2144019B0704700BF00060E40A0B90E48036A0902F1
S2144019C089B20D4A1A400D4B134319430162024631
S2144019D0936E13F0010FFBD0064A116A084B0B4377
S2144019E01362704703490B6A064A1A40064B134374
S2144019F00B62704700060E40FCFFC8FF0100370030
S214401A0000003701FCFFC8FE02003701024B986E0B
S214401A1000F48030704700BF00060E404FF0005282
S214401A20014B9A62704700BF00060E40024B986E0C
S214401A3000F00200704700BF00060E403F281ED848
S214401A401F280CD8114B9A6901238340934318D022
S214401A50012303FA00F00D4B186100207047203830
S214401A600A4BD3F808210123834093430BD001232C
S214401A7003FA00F0054BC3F8000100207047012030
S214401A807047002070470020704700BF00060E4099
S214401A90436913F0020F02D0C16100207047012055
S214401AA07047436913F0010F03D083690B70002021
S214401AB070470120704710B40B01934214D9C900F7
S214401AC04B0803EBC202B2FBF1F2D3085C1E4FF6A2
S214401AD0FE718C4201D9012017E0416841F4002193
S214401AE041600CE0012010E0590801EBC202B2FB55
S214401AF0F3F2D3085C1E4FF6FE718C42F2D8120405
S214401B0002F4E0221A43026200205DF8044B70475C
S214401B10084BC0F8E4300023436043628362882366
S214401B200360242303604FF4807303604FF4002364
S214401B30036070470041535570B505460C4616463F
S214401B400F4B984700220F4B1A60A4B132462168CB
S214401B5028460D4B9847024678B96368A1680B4300
S214401B6021690B43E1680B4306490B6069680B43E8
S214401B706B60104670BD0122FBE70122F9E700BF0B
S214401B80111B4000580C4020B71A40004023036009
S214401B907047102303607047436913F0020F04D068
S214401BA0C1F30801C16100207047012070474369B6
S214401BB013F0010F05D08369C3F308030B600020C0
S214401BC0704701207047FEE700B583B0254B264A94
S214401BD09A4210D0254B234A9A420CD2013B9B1A7C
S214401BE023F00303043313441F4951F8040B42F80F
S214401BF0040B9A42F9D11E4B1E4A9A420AD2013B26
S214401C009B1A23F0030304331344002142F8041BB9
S214401C109342FBD1184A194B23F07F039360EFF3AE
S214401C201083B3FA83F35B09019372B6BFF35F8FF9
S214401C300022134B1A700199124A136843F470033A
S214401C401360BFF34F8FBFF36F8F29B101220C4B48
S214401C501A70BFF35F8F62B60B4B98470B4B984793
S214401C60FEE700BF00004020DCC44000C80940201A
S214401C70500E4020C809402000ED00E00000400023
S214401C800A00402088ED00E0E96C4000B94340007F
S214401C903B4B1B6B03F00303012B1DD083B1022B80
S214401CA036D0374B1B6B03F07003702B5FD0344B32
S214401CB01A6B3449C2F302120B68D3400B6070476C
S214401CC0314B5B6913F0800F14BF4FF400424FF462
S214401CD0FA422C4B1A60E4E7294B1B6A13F0807FCC
S214401CE003D02A4A274B1A60DBE7294A254B1A605D
S214401CF0234B1B6A03F07003102B05D0202BD0D14A
S214401D00224A204B1A60CCE7224A1E4B1A60C8E78C
S214401D101B4B1B6A13F0807F16D01C4A194B1A6067
S214401D20174B1B6B03F00303022BBAD1144A916A7C
S214401D30926A1448C1F30A41036801FB0333D2B2E6
S214401D40B3FBF2F30360ACE7114A0E4B1A600C4B40
S214401D501B6A03F07003102B05D0202BE0D10B4AF2
S214401D60084B1A60DCE70B4A064B1A60D8E7054A70
S214401D7013680949A1FB03135B081360704700BF53
S214401D8000060E400C00402010180E40001BB70006
S214401D9000093D0000127A00ABAAAAAA164B984248
S214401DA013D9164B984215D9154B984216D9154B50
S214401DB0984217D9144B984218D9144B984294BF5E
S214401DC0134A144A144B1A6070474FF08062124B05
S214401DD01A607047114A104B1A607047104A0E4BF3
S214401DE01A6070470F4A0C4B1A6070474FF0042237
S214401DF0094B1A60704700BFBFF35E017FE7BD0224
S214401E003FDB1C04FFCE7B05BFC2DA067FB639082F
S214401E100005000400060004000C0E40000100040B
S214401E2000020004000300040A4B1B6853B1094B30
S214401E301B681A180849914208DB1046054A10608C
S214401E4018467047054A034B1A60F0E74FF0FF30DC
S214401E50704700BF5C0C4020FCFF452050304020BF
S214401E604FF0FF3070474FF400534B6000207047F0
S214401E70012070470020704700F1080343604FF090
S214401E80FF328260C3600361002303607047002313
S214401E900361704743684B609A688A609A685160ED
S214401EA099600861036801330360704730B40D6879
S214401EB0B5F1FF3F02D000F1080202E0026904E0FB
S214401EC01A4653681C68A542FAD253684B6099601C
S214401ED08A605160086103680133036030BC704714
S214401EE003694268816891608268416851605A68B7
S214401EF0904205D000220261186801381860704789
S214401F0082685A60F6E700000D4B1B68B3F1FF3F4E
S214401F100AD04FF0800372B683F31188BFF36F8FF9
S214401F20BFF34F8F62B6FEE74FF0800372B683F37F
S214401F301188BFF36F8FBFF34F8F62B6FEE700BFC7
S214401F401000402006480068006880F3088862B6A3
S214401F5061B6BFF34F8FBFF36F8F00DF00BF000047
S214401F6008ED00E0DFF80C00016841F47001016004
S214401F707047000088ED00E04FF0807340F8043C66
S214401F8040F8081C054B40F80C3C40F8202C6FF0FD
S214401F90020340F8243C4438704700BF091F400005
S214401FA0064B19680868B0E8F04F80F30988BFF31D
S214401FB06F8F4FF0000080F311887047680C402008
S214401FC0704700BF4FF0800372B683F31188BFF3AB
S214401FD06F8FBFF34F8F62B60B4A1368013313609F
S214401FE0012B0FD1094B1B6813F0FF0F0AD04FF09F
S214401FF0800372B683F31188BFF36F8FBFF34F8FA2
S21440200062B6FEE7704700BF1000402004ED00E0D7
S2144020100A4B1B6853B94FF0800372B683F311889E
S214402020BFF36F8FBFF34F8F62B6FEE7013B034AA5
S21440203013600BB983F31188704700BF100040202F
S214402040EFF30980BFF36F8F154B1A681EF0100F21
S21440205008BF20ED108A20E9F04F10604DF8043D8F
S2144020604FF0800072B680F31188BFF34F8FBFF3F6
S2144020706F8F62B601F090F84FF0000080F3118841
S21440208008BC19680868B0E8F04F1EF0100F08BF8B
S214402090B0EC108A80F30988BFF36F8F704700BF9B
S2144020A0680C4020704700BF08B5EFF311834FF02F
S2144020B0800272B682F31188BFF36F8FBFF34F8FE3
S2144020C062B6054B984718B14FF08052034B1A60E2
S2144020D0002383F3118808BD052E400004ED00E080
S2144020E0034A044B1A600722043B1A60704700BF3D
S2144020F0BF27090014E000E000B583B0254B1A78EE
S214402100D2B20192FF221A701B78DBB28DF80330F0
S2144021109DF8033003F080031F4A137007221F4BBD
S2144021201A609DF8033013F0800F10D0062200E0AE
S2144021300A469DF803305B00DBB28DF803309DF80D
S2144021400330511E13F0800FF2D1144B1A60134A1D
S21440215013681B0203F4E0631360019BDBB20D4A75
S21440216013700F4B1A6842F460021A601A6842F005
S21440217060421A600B4B984700220B4B1A600B4B81
S21440218098470B4A136843F040431360094B9847FF
S214402190094B984700E400E0600C4020640C402067
S2144021A020ED00E0E120400010004020651F400088
S2144021B034EF00E0451F4000091F4000EFF3058361
S2144021C00F2B11D9124A9B5CDBB2124A12789A4204
S2144021D00AD94FF0800372B683F31188BFF36F8F2E
S2144021E0BFF34F8F62B6FEE70B4B1B6803F4E0630A
S2144021F00A4A126893420AD94FF0800372B683F3B4
S2144022001188BFF36F8FBFF34F8F62B6FEE77047FC
S214402210F0E300E0600C40200CED00E0640C402051
S21440222010B50446064B98472046064B984704464A
S214402230054B98470CB1204610BD044B9847FAE72B
S214402240E92D4000396D4000512F40007F3D400051
S21440225048B110B50446044B98472046034B984770
S214402260034B984710BD7047E92D4000496D40002C
S214402270512F400038B504461546026C5AB90368DB
S214402280002B2ED140681B4B984700236360A36BFE
S2144022900133A36338BD6DB98068174B9847A36870
S2144022A0226C1344A360626893421CD32368A360E5
S2144022B00020ECE7C068104B9847236C5B42E2680E
S2144022C01A44E26021688A4202D262681344E3609C
S2144022D0022D0AD1A36B53B1A36B013BA36300202D
S2144022E0D5E70020D3E70020D1E70020CFE7002045
S2144022F0CDE700BF99354000B972400030B583B095
S2144023000190446D74B1A26BE36B9A4215D34FF0C3
S214402310800372B683F31188BFF36F8FBFF34F8F7E
S21440232062B6FEE74FF0800372B683F31188BFF3C0
S2144023306F8FBFF34F8F62B6FEE7A26B934203D810
S2144023400025284603B030BD0A4601A920460B4B5F
S21440235098470546A36CB3F1FF3F0AD1636A002B4A
S214402360EFD004F12400064B9847002818BF0125FB
S214402370E7E7A36C0133A364E3E700BF75224000A0
S2144023806D334000026C72B110B50346C468144405
S214402390C4604068844201D31868D8600846D9684B
S2144023A0014B984710BD7047B9724000F8B50446D7
S2144023B0224B9847A36C002B1BDD214D214F224E0C
S2144023C00BE0636AABB104F12400B04778B9A36C64
S2144023D0013BA364A36C002B0BDD636D002BF0D098
S2144023E000212046A8470128F1D1B847EFE7B84773
S2144023F0EDE74FF0FF33A364144B98470F4B9847D5
S214402400636C002B14DD236993B104F110060E4D66
S2144024100C4F07E0636C013B6364636C002B07DD85
S21440242023692BB13046A8470028F3D0B847F1E7D8
S2144024304FF0FF336364054B9847F8BDC51F400017
S214402440FD224000C93440006D334000112040005A
S21440245038B508B304460D461D4B98472268216C94
S214402460E36B03FB01F3D01860600020A063A2601A
S2144024705B1A1344E3604FF0FF336364A364FDB913
S21440248023692BB104F11000124B984701280ED057
S214402490114B9847012038BD4FF0800372B683F346
S2144024A01188BFF36F8FBFF34F8F62B6FEE74FF0D2
S2144024B080520A4B1A60BFF34F8FBFF36F8FE7E728
S2144024C004F11000064DA84704F12400A847DFE7B2
S2144024D0C51F40006D3340001120400004ED00E071
S2144024E0791E4000F8B550B94FF0800372B683F3BA
S2144024F01188BFF36F8FBFF34F8F62B6FEE7064675
S21440250017460D4689B101FB00F05930124B9847EB
S2144025100446E8B94FF0800372B683F31188BFF3E0
S2144025206F8FBFF34F8F62B6FEE758200A4B98472F
S21440253004460028EED02060E6632564012120464C
S214402540064B984784F85070002363652046F8BDD4
S21440255000F158030360EFE7212240005124400079
S2144025602DE9F04F85B00192B8B1044601B3022B75
S2144025702CD01D468846664B9847002834D1019B90
S214402580002B38D04FF0800372B683F31188BFF328
S2144025906F8FBFF34F8F62B6FEE74FF0800372B681
S2144025A083F31188BFF36F8FBFF34F8F62B6FEE79A
S2144025B0026C002ADBD04FF0800372B683F311889A
S2144025C0BFF36F8FBFF34F8F62B6FEE7E26B012A11
S2144025D0CFD04FF0800372B683F31188BFF36F8F6E
S2144025E0BFF34F8F62B6FEE700274A4EDFF850A192
S2144025F0DFF82C9142E00027F7E72A46414620467E
S214402600454B9847636D9BB129462046434B9847B8
S214402610012807D14FF08052414B1A60BFF34F8FCD
S214402620BFF36F8F3F4B9847012005B0BDE8F08F52
S214402630636A73B104F124003B4B98470128F1D1FB
S2144026404FF08052364B1A60BFF34F8FBFF36F8FF9
S214402650E8E70028E6D04FF08052314B1A60BFF3CF
S2144026604F8FBFF36F8FDDE72E4B98470020DCE798
S21440267020462E4B98472E4B98470127B047A26BD3
S214402680E36B9A42B9D3022DB7D0019B002BEBD017
S2144026900FB902A8D047234B9847264B9847B047D8
S2144026A0636CB3F1FF3F01D100236364A36CB3F1C5
S2144026B0FF3F01D10023A3641A4B984701A902A803
S2144026C01D4B9847E0B9B047D4F838B0E76B154B88
S2144026D09847BB45CCD1019904F11000174B984759
S2144026E02046124B9847124B98470028C5D14FF0CA
S2144026F08053C9F80030BFF34F8FBFF36F8FBCE7EE
S21440270020460A4B98470A4B984700208DE700BF63
S214402710D5344000C51F400075224000FD224000D1
S21440272004ED00E0112040006D334000AD23400032
S214402730512F4000E92D40003534400069324000BA
S21440274005344000002836D02DE9F04104460029E3
S2144027503CD0022B48D01E4615468846354B9847F7
S214402760EFF311874FF0800372B683F31188BFF3FF
S2144027706F8FBFF34F8F62B6A26BE36B9A4201D363
S214402780022E4FD13246414620462B4B9847A36CEB
S214402790B3F1FF3F41D1636D002B33D03146204625
S2144027A0264B9847002D3FD001283DD1286087F31F
S2144027B01188BDE8F0814FF0800372B683F311882C
S2144027C0BFF36F8FBFF34F8F62B6FEE7006C0028F3
S2144027D0BFD04FF0800372B683F31188BFF36F8F7C
S2144027E0BFF34F8F62B6FEE7E06B0128B3D04FF0E1
S2144027F0800372B683F31188BFF36F8FBFF34F8F9A
S21440280062B6FEE7636A8BB104F124000C4B98472E
S21440281075B168B101202860C9E7A36C0133A36491
S2144028200120C4E70020C2E70120C0E70120BEE740
S2144028300120BCE7BD21400075224000FD2240003B
S2144028406D3340002DE9F04784B0019298B10446BC
S214402850E1B198460F46614B984728BB019B53B35E
S2144028604FF0800372B683F31188BFF36F8FBFF3C8
S2144028704F8F62B6FEE74FF0800372B683F311883F
S214402880BFF36F8FBFF34F8F62B6FEE7026C002A2E
S214402890DFD04FF0800372B683F31188BFF36F8F9B
S2144028A0BFF34F8F62B6FEE700264D4DDFF860A1BE
S2144028B0DFF83C914BE00026F7E7E56839462046CE
S2144028C0484B9847B8F1000F1DD1A36B013BA3635B
S2144028D0236813B9444B9847606023696BB104F191
S2144028E01000424B9847012807D14FF08052404B8A
S2144028F01A60BFF34F8FBFF36F8F3E4B9847012050
S21440290004B0BDE8F087E560636A002BF5D004F1BB
S2144029102400364B98470028EFD04FF08052344B77
S2144029201A60BFF34F8FBFF36F8FE6E7314B984780
S2144029300020E5E7A84760682F4B98472D4B9847FF
S21440294030E020462D4B98472D4B98470126A84708
S214402950A36B002BB1D1019B002BE7D00EB902A888
S214402960D047244B9847274B9847A847636CB3F10A
S214402970FF3F01D100236364A36CB3F1FF3F01D155
S2144029800023A3641B4B984701A902A81E4B9847F7
S214402990E8B9A847A66B174B9847002ED1D12368B5
S2144029A0002BC7D0019904F12400184B98472046C5
S2144029B0124B9847124B98470028C7D14FF0805388
S2144029C0C9F80030BFF34F8FBFF36F8FBEE7204686
S2144029D00A4B98470A4B9847002091E7D534400069
S2144029E0C51F400085234000553640006D334000EB
S2144029F004ED00E011204000F5344000AD234000D7
S214402A00512F4000E92D40003534400069324000E7
S214402A100534400010B40B4B1B6853B10123094CDE
S214402A2054F8332032B10133082BF9D15DF8044B0A
S214402A3070470023034A42F8331002EBC303586042
S214402A40F4E700BFE00D402070B504460D4616463C
S214402A500F4B9847636CB3F1FF3F0BD0A36CB3F1B9
S214402A60FF3F0AD00B4B9847A36B4BB120460A4B0F
S214402A70984770BD00236364F0E70023A364F1E742
S214402A803246294604F12400044B9847EEE700BF3F
S214402A90C51F400011204000AD234000ED324000ED
S214402AA0084B1B681B683BB1064B1B68DB68DB6842
S214402AB05A68054B1A6070474FF0FF32024B1A6057
S214402AC0704700BF6C0C4020180D402010B50F4BCF
S214402AD01B6858600E4B1B6898420ED304460D4B3D
S214402AE018680A4B196804310B4B98470B4B1B6808
S214402AF09C4201D2094B1C6010BD094B1868034B21
S214402B0019680431044B984710BD00BF680C40203C
S214402B10600D40206C0C4020AD1E4000180D40203B
S214402B20700C40202DE9F04F83B00C9DDDF834A0AA
S214402B300E9E60B1042D15D94FF0800372B683F314
S214402B401188BFF36F8FBFF34F8F62B6FEE74FF02B
S214402B50800372B683F31188BFF36F8FBFF34F8F36
S214402B6062B6FEE70190984691460F4636B9900009
S214402B70624B98470646002800F09E8058205F4BE0
S214402B8098470446002800F0948006634FEA89027E
S214402B90A52130465A4B98476FF040464E44236B2B
S214402BA003EB860323F007063B7884F834303B7803
S214402BB0002B40F08480002784F83D70E562A564D1
S214402BC0E76404F104094846DFF884B1D84704F1C5
S214402BD01800D8472461C5F10503A36164622765E0
S214402BE084F85470424601993046464B98472060D8
S214402BF0BAF1000F01D0CAF80040434B9847434A09
S214402C00136801331360424B1B68002B66D1404B60
S214402C101C601368012B21D13E4F38463E4EB047CC
S214402C2007F11400B04707F12800B04707F13C0011
S214402C30B04707F15000B047DFF818814046B0472C
S214402C40364F3846B0473648B0473648B0473648DD
S214402C50B047364BC3F80080354B1F60354A136883
S214402C60013313602364E06A334A116801238340CA
S214402C700B43136000EB80004946264B03EB800075
S214402C802E4B98472E4B98472E4B1B68002B31D027
S214402C901F4B1B68DB6A9D422ED94FF080522A4B51
S214402CA01A60BFF34F8FBFF36F8F012003B0BDE8AC
S214402CB0F08F3046254B98474FF0FF30F6E73B46BF
S214402CC004F134020937597802F8011F13F8011F3E
S214402CD000293FF470AFBB42F5D16CE7194B1B6837
S214402CE0002BBBD10A4B1B68DB6A9D42B6D3084B10
S214402CF01C60B3E70120D9E70120D7E72122400036
S214402D00ED734000791F4000C51F4000D80C40209E
S214402D10680C4020740C4020791E4000040D402072
S214402D20200D40204C0D4020380D40206C0C40209B
S214402D30700C4020E40C4020EC0C4020951E4000D7
S214402D4011204000340D402004ED00E051224000A8
S214402D508F1E4000F00C402010B584B00023039333
S214402D600293019300934FF4006217491748184C9A
S214402D70A04701280BD020BB4FF0800372B683F3E8
S214402D801188BFF36F8FBFF34F8F62B6FEE7114BCC
S214402D9098470128EFD14FF0800372B683F311882D
S214402DA0BFF36F8FBFF34F8F62B64FF0FF320A4BC1
S214402DB01A600122094B1A600022094B1A60094B1F
S214402DC0984704B010BD00BF44BC400001314000ED
S214402DD0252B400041374000180D4020340D402040
S214402DE0600D4020F9204000024A1368013313600A
S214402DF0704700BFE00C4020014B1868704700BF8A
S214402E00600D40202DE9F047424B1B68002B78D1DF
S214402E10414B1A6801321A601E68D6B93F4B1B6890
S214402E201B6853B14FF0800372B683F31188BFF32B
S214402E306F8FBFF34F8F62B6FEE7384A1168384B44
S214402E40186810601960374A136801331360364BB0
S214402E509847364B1B689E4218D20024344B1B685A
S214402E60DB6A03EB8303334A52F82330022B28BF36
S214402E700124314B1B680BB9304B9847304B1B68CD
S214402E80002B0CBF20460120BDE8F0870024DFF869
S214402E908C90DFF8B8802B4F1FE04FF0FF32234B6B
S214402EA01A60DBE7214A1360D8E705F11800C047EF
S214402EB0E86A3A680123834013433B6000EB800096
S214402EC051461C4B03EB80001F4B9847184B1B6822
S214402ED0EA6ADB6A9A4228BF0124D9F800301B68A8
S214402EE0002BDAD0D9F80030DB68DD686B689E428C
S214402EF0D8D305F1040A5046C047AB6A002BD4D15C
S214402F00D6E70D4A1368013313600C4B98470024EC
S214402F10B4E700BFE00C4020600D40206C0C402021
S214402F20700C40201C0D4020A12A4000180D402067
S214402F30680C4020740C4020DC0C40207D3D400056
S214402F40640D4020EC0C4020951E4000E11E4000E1
S214402F502DE9F843384B1B6853B94FF0800372B6DF
S214402F6083F31188BFF36F8FBFF34F8F62B6FEE7D0
S214402F70324B9847304B1A68013A1A601B68002B50
S214402F8055D12F4B1B68002B32D100242D4B984730
S214402F902046BDE8F883FB68DC6804F11800B047BB
S214402FA004F104084046B047E06A2A68012383409B
S214402FB013432B6000EB8000414609EB8000224B18
S214402FC09847224B1B68E26ADB6A9A420CD23B68FF
S214402FD0002BE0D11E4B1B68DBB11D4B1B68C3B1F9
S214402FE01C4E1D4D1A4C0EE001221B4B1A60EEE79C
S214402FF01A4F1B4E1B4DDFF87490E8E72368013BE1
S214403000236023682BB1B0470028F7D001232B60FC
S214403010F4E7114B1B68012B0BD14FF08052124B3B
S2144030201A60BFF34F8FBFF36F8F0124AEE70024C3
S214403030ACE70024AAE700BFE00C4020C51F4000D4
S214403040D80C402011204000951E4000680C4020BF
S214403050DC0C4020052E4000640D4020200D402012
S214403060E11E4000EC0C402004ED00E0740C4020D3
S21440307010B5002829D00446184B1B6853B14FF0B2
S214403080800372B683F31188BFF36F8FBFF34F8F01
S21440309062B6FEE7124B9847124B1B681C44124B15
S2144030A018680430114B984748B90F4B1A681049B6
S2144030B00B68D06A0122824023EA02030B60204656
S2144030C00C4B98470C4B984738B94FF080520B4BF7
S2144030D01A60BFF34F8FBFF36F8F10BDE00C4020D8
S2144030E0E92D4000600D4020680C4020E11E400065
S2144030F0EC0C4020CD2A4000512F400004ED00E06B
S21440310080B5DFF88880194EDFF884902AE0184BA7
S2144031101B68012B1ED82B68002BF8D0C04734689C
S214403120B847002CF7D0134B9847F368DC68201D4F
S214403130114B9847114A1368013B13602B68013BBB
S2144031402B600F4B9847206BDFF848A0D0472046AF
S214403150D047E0E74FF08053C9F80030BFF34F8FB9
S214403160BFF36F8F074D084FD5E700BF4C0D40208B
S214403170740C4020C51F4000E11E4000D80C402083
S21440318011204000E80C4020512F4000E92D40001F
S21440319004ED00E0512240002D4B1B68002B2CD143
S2144031A010B500222B4B1A602B4B1B681B6B1A6802
S2144031B0B2F1A53F03D15A68B2F1A53F21D0264BC4
S2144031C0186819683431254B9847254B1B68B3FA65
S2144031D083F3DBB2C3F11F0303EB8301214A52F8AA
S2144031E02120BAB94FF0800372B683F31188BFF33B
S2144031F06F8FBFF34F8F62B6FEE70122154B1A6002
S21440320070479A68B2F1A53FD9D1DB68B3F1A53FC4
S214403210D5D1DAE7134A9900C81802EB8000446813
S21440322064684460194402460832944209D003EB6D
S21440323083030C4A02EB83035B68DA68064B1A602A
S21440324010BD6068074A02EB81025060EFE700BF9E
S214403250E00C4020640D4020680C4020653D400056
S214403260EC0C4020740C402038B5E0B10C46174DAD
S21440327029681831164B984728680430154B9847EC
S21440328040B92A6814490B68D06A0122824023EA72
S21440329002030B60B4F1FF3F10D0104B1868204477
S2144032A00F4B984738BD4FF0800372B683F31188B2
S2144032B0BFF36F8FBFF34F8F62B6FEE7034B1968BD
S2144032C004310848084B984738BD00BF680C40207A
S2144032D0AD1E4000E11E4000EC0C4020600D40203A
S2144032E0CD2A4000380D4020951E4000E8B170B50C
S2144032F015460C46164E31681831164B98473068BE
S2144033000430154B984740B9326814490B68D06A68
S2144033100122824023EA02030B60012D10D0104B9D
S214403320186820440F4B984770BD4FF0800372B624
S21440333083F31188BFF36F8FBFF34F8F62B6FEE7FC
S214403340034B196804310848024B984770BD00BFCC
S214403350680C4020951E4000E11E4000EC0C4020CA
S214403360600D4020CD2A4000380D402038B5C36857
S214403370DC6824B304F1180528461A4B98471A4BC4
S2144033801B683BBB251D2846164B9847E06A174AE4
S2144033901168012383400B43136000EB80002946ED
S2144033A0134B03EB8000134B9847134B1B68E26AA2
S2144033B0DB6A9A4213D90120104B186038BD4FF093
S2144033C0800372B683F31188BFF36F8FBFF34F8FBE
S2144033D062B6FEE729460A48064B9847E5E70020CE
S2144033E038BD00BFE11E4000E00C4020EC0C402001
S2144033F0740C4020951E4000680C4020640D402010
S214403400200D402030B1094A12680260084A12680E
S214403410426070474FF0800372B683F31188BFF363
S2144034206F8FBFF34F8F62B6FEE700BF1C0D402084
S214403430600D402038B5C0B1044609B30D461D4B5B
S21440344098471D4B1A682B68B3F1FF3F2ED01B4997
S21440345009682068884202D061688A4228D261683A
S214403460501A834217D801241CE04FF0800372B6EE
S21440347083F31188BFF36F8FBFF34F8F62B6FEE7BB
S2144034804FF0800372B683F31188BFF36F8FBFF39C
S2144034904F8F62B6FEE79B1A0B442B602046084BC4
S2144034A098470024074B9847204638BD0024F9E744
S2144034B00124F7E7C51F4000600D40201C0D40204A
S2144034C005344000112040000122014B1A6070472D
S2144034D0640D4020054B1B6833B1054B1B68002B21
S2144034E00CBF02200020704701207047340D40205A
S2144034F0E00C4020002844D038B50446C26A214932
S2144035000968C96A8A4214D28169002905DB1D49C7
S2144035100968C96AC1F10501816102EB82021A4954
S21440352001EB82026169914204D0164A1268D26A5F
S214403530E26238BD251D2846144B984770B9E36AA9
S21440354003EB8301104A52F821203AB9104802682A
S214403550012101FA03F322EA03030360094B1B68C7
S214403560D86AE0620A4A1168012383400B4313601D
S21440357000EB80002946044B03EB8000054B984740
S21440358038BD7047680C4020740C4020E11E400057
S214403590EC0C4020951E400000284DD038B504461F
S2144035A0274A126890420AD04FF0800372B683F3DF
S2144035B01188BFF36F8FBFF34F8F62B6FEE7C26CC2
S2144035C052B94FF0800372B683F31188BFF36F8F02
S2144035D0BFF34F8F62B6FEE7013AC264C06AA16C81
S2144035E088422BD052BB251D2846164B984768B9B3
S2144035F0E16A01EB8102144B53F8223033B9134889
S214403600036801228A4023EA02030360A06CE0625A
S214403610C0F10503A3610D4A1168012404FA00F3C2
S2144036200B43136000EB80002946074B03EB8000FA
S214403630074B9847204638BD00207047002038BDCD
S214403640680C4020E11E4000740C4020EC0C4020EA
S214403650951E4000054B1B6823B1044B1A68D36C7B
S2144036600133D364014B1868704700BF680C402094
S21440367008B54160006191420CD8D21A83699A42DB
S21440368001D3012008BD011D094B1868094B984716
S214403690002008BD9A4203D2994201D3012008BDBA
S2144036A0011D054B1868034B9847002008BD00BF16
S2144036B06C0D4020AD1E4000680D402070B5154B87
S2144036C09847154B1B6813B1144B984770BD144D63
S2144036D02846144EB047144C2046B047134B1D6046
S2144036E0134B1C60002210210520124B98470A4BB2
S2144036F0186018B11049114B9847E5E74FF0800322
S21440370072B683F31188BFF36F8FBFF34F8F62B6E5
S214403710FEE700BFC51F40009C0D40201120400022
S214403720700D4020791E4000840D4020680D4020DA
S2144037306C0D4020E52440004CBC4000152A40005B
S21440374010B584B00F4B98470F4B1B6873B10023DE
S214403750039302930193042200924FF480520B4944
S2144037600B480C4CA04708B104B010BD4FF0800386
S21440377072B683F31188BFF36F8FBFF34F8F62B675
S214403780FEE700BFBD3640009C0D402054BC4000C4
S214403790C1384000252B4000D8B130B585B015461D
S2144037A00446154A106820B31A46009101950294C3
S2144037B0052919DC114B984702284FF000030CBF2F
S2144037C0089A1A4669460C4800680D4CA04705B052
S2144037D030BD4FF0800372B683F31188BFF36F8F0E
S2144037E0BFF34F8F62B6FEE700236946054CA047FD
S2144037F0EDE70020EBE700BF9C0D4020D5344000AD
S21440380061254000452740002DE9F04782B08046BC
S214403810244B98470746244B1B6898421BD30023EB
S214403820C8F80030204B1F60384602B0BDE8F0872D
S214403830002100910B46524620461C4CA04760B9DA
S2144038404FF0800372B683F31188BFF36F8FBFF3D8
S2144038504F8F62B6FEE7164D164E2B681A68C2B1F9
S214403860DB68D3F800A0DC6804F104094846B0479A
S214403870636A20469847E369012BEED1A369534417
S2144038809A45D5D263602461494628680A4B9847D2
S214403890E3E70A4A10680649086013600123C8F83F
S2144038A00030BFE7F92D4000980D40209937400082
S2144038B0680D4020E11E4000AD1E40006C0D4020CB
S2144038C02DE9F04788B0754E754FDFF8FC91DFF86C
S2144038D0FC8133681A68002A00F0CE80DB681C68DA
S2144038E0B84704A86F4B98470546049B002B44D125
S2144038F0A04212D20022611B6B4B18686B4B984754
S2144039006B4B984700283AD14FF08053C9F80030A7
S214403910BFF34F8FBFF36F8F31E0654B98473368E7
S214403920DB68D3F80CA00AF10400C047DAF81C3074
S214403930012B04D0DAF82430504698471FE0DAF8D6
S214403940181023462A46214450465A4DA847012877
S214403950F0D1002100910B4622465046564CA047D7
S2144039600028E7D14FF0800372B683F31188BFF387
S2144039706F8FBFF34F8F62B6FEE74D4B98474A4D69
S2144039804E4C06E007990698059B9847049B002BEB
S21440399009DA00231A4604A92868A047002898D0C8
S2144039A0049B002BEEDBDDF818A0DAF8143013B1D8
S2144039B00AF10400C04703A83A4B9847049B092BDA
S2144039C0E7D801A252F823F0F1394000F13940001F
S2144039D0F139400093394000453A4000713A400082
S2144039E0F1394000F139400093394000453A4000F3
S2144039F0059CDAF8181023460246214450462D4CC2
S214403A00A0470128BCD1DAF8243050469847DAF867
S214403A101C30012BB4D1DAF81820002100910B4657
S214403A20059802445046244CA0470028A8D14FF0A1
S214403A30800372B683F31188BFF36F8FBFF34F8F47
S214403A4062B6FEE70599CAF8181031B10346024639
S214403A5001445046174CA04792E74FF0800372B699
S214403A6083F31188BFF36F8FBFF34F8F62B6FEE7C5
S214403A705046134B984783E7B84704A8094B9847E6
S214403A800546049B002B7FF478AF0E4B1B681A68E4
S214403A90B2FA82F2520900242DE700BF680D40209A
S214403AA0E92D4000093840009C0D4020492A40003E
S214403AB0512F40007136400099374000452840005D
S214403AC0512240006C0D402004ED00E0E11E400015
S214403AD080B582B001212F482F4CA0474FF080413F
S214403AE02E48A04704212E48A0472E4D294F2B4E46
S214403AF007E09DF80730012B20D09DF80730022BB9
S214403B002CD0002301220DF107012868264CA0473F
S214403B10002833D09DF80730002BEAD101213846E3
S214403B20224B98474FF0804130461B4CA04704211B
S214403B301B48A0470A201E4B9847DAE7042118483E
S214403B401A4B984701213846134CA0474FF0804106
S214403B503046A0470A20164B9847CEE74FF08041A4
S214403B603046124B9847012138460B4CA04704215B
S214403B700B48A0470A200E4B9847C2E7012138461B
S214403B80054CA0474FF080413046A04704210448EA
S214403B90A047B6E7000E0E40D916400000120E4071
S214403BA000100E40240E402045284000DD16400000
S214403BB071304000F0B583B005460C4600230193B3
S214403BC02A4B984213D02A4B984218D0294B9842F9
S214403BD01DD0294B9D4222D0284B9D4227D0284BB2
S214403BE09D422ED0274B9D4235D003B0F0BD1F4698
S214403BF0254E21463846B0470028FAD1E9E71F4609
S214403C00214E21463846B0470028FAD1E4E71F4601
S214403C101D4E21463846B0470028FAD1DFE71F46FA
S214403C20194E21463846B0470028FAD1DAE71E46F4
S214403C30164D01A93046A8470028FAD1019B2370AB
S214403C40D3E71E46114D01A93046A8470028FAD1B1
S214403C50019B2370C9E71E460C4D01A93046A84774
S214403C600028FAD1019B2370BFE700BF00080E4032
S214403C70000A0E40001A0E40001C0E400040024053
S214403C800080024000C00240A31A4000AF1B400024
S214403C9070B50C462A4B984213D02A4B984219D0FE
S214403CA0294B98421FD0294B984225D0284B984202
S214403CB02BD0284B984231D0274B984237D0002003
S214403CC070BD1E46254D21463046A8470028FAD1ED
S214403CD0012070BD1E46214D21463046A84700288B
S214403CE0FAD1012070BD1E461C4D21463046A847DD
S214403CF00028FAD1012070BD1E46184D2146304698
S214403D00A8470028FAD1012070BD1E46144D214612
S214403D103046A8470028FAD1012070BD1E46104DF7
S214403D2021463046A8470028FAD1012070BD1E46DD
S214403D300B4D21463046A8470028FAD1012070BDD9
S214403D4000080E40000A0E40001A0E40001C0E40AE
S214403D50004002400080024000C00240911A4000ED
S214403D60991B400008B50A4601460248024B984750
S214403D70FEE700BF0CBE4000A174400070474FF005
S214403D80800372B683F31188BFF36F8FBFF34F8FF4
S214403D9062B6FEE730B585B029200E4CA0470E4BE4
S214403DA0019349F64043029301A90C480C4B9847AF
S214403DB01020A0470B4D4FF080524FF0C051284680
S214403DC0094CA0474FF000624FF0C0512846A0472C
S214403DD005B030BD3D1A400000A3E111000006408A
S214403DE0A903400000140E40E116400000B587B01D
S214403DF08DF814008DF8041001210291039204936B
S214403E0001A90348034B984740B207B05DF804FB4E
S214403E10000006408904400000B587B08DF81400C5
S214403E208DF80410012102910392049301A90348DE
S214403E30034B984740B207B05DF804FB00000640CD
S214403E40DD034000000000002DE9F0472DED0A8B11
S214403E50B2B03B4B984768213A483B4B9847C0B274
S214403E60002842D039483A4B984701232BAA75215F
S214403E706820384CA04700283BD03748344B9847FA
S214403E809DF8AC30682B0CBF34483548354B9847C6
S214403E90012332AA02F8283D6B216820324CA04705
S214403EA070BB32AA002302F8283D01231C2168205B
S214403EB02D4CA04740BB32AA002302F8283D0123E0
S214403EC01B216820284CA04710BB0BA8274B9847BF
S214403ED001244FF0680A0FF26009D9E90089244EA0
S214403EE0DFED24AA9FED24AA82E02448184B984789
S214403EF0BBE79DF8AC20752121481A4B9847BFE791
S214403F002048134B9847CCE71E48114B9847D2E7BA
S214403F101C480F4B9847D8E700231A4619461A48BC
S214403F2000681A4DA8473DE117EE900A184B98478F
S214403F300BEE900A34E000BF333333333333D33F92
S214403F40953D4000000006402905400000BD400069
S214403F5065754000193E400030BD400060BD4000E1
S214403F6080BD4000A1744000ED3D40006106400029
S214403F7089474000E02E65420000704218BD400070
S214403F8048BD4000A4BD4000200E402061254000B2
S214403F90E9464000DB0FC9BF000070C25FED03BAC0
S214403FA06BEEAABA69EE097A29EE899A28EE888AD3
S214403FB07BEE677A17EE901A79EE087A17EE900A3B
S214403FC0B047B4EECACAF1EE10FA00F343815FED93
S214403FD00E7AB4EEE7CAF1EE10FA00F14581F4EE3F
S214403FE0CABAF1EE10FA00F349812046A94B984729
S214403FF023460DF19F023B215046A74DA847234636
S21440400027AA3C215046A84723460DF19E023D2153
S2144040105046A84723460DF19B0240215046A847EC
S21440402023460DF19D023F215046A84723460DF1F9
S2144040309A0240215046A8479DF89F209DF89C3004
S21440404043EA02231BB209EE103A9DF89E209DF8E3
S2144040509B3043EA02231BB208EE903A9DF89D201F
S2144040609DF89A3043EA02231BB208EE103A2346E4
S2144040700DF1990243215046A84723460DF196027A
S21440408044215046A847234626AA45215046A847DD
S21440409023460DF1950248215046A84723460DF188
S2144040A0970247215046A847234625AA482150460E
S2144040B0A8479DF899709DF896109DF898509DF8E1
S2144040C095209DF897009DF89430B8EEC99ADFED9C
S2144040D0737A29EE279AF8EEE88A68EEA78AB8EE51
S2144040E0C88A28EE278A41EA072109B207EE901AC5
S2144040F0F8EEE77A9FED6A7A87EE87BA42EA0522BB
S21440410012B207EE902AF8EEE77AC7EE87BA43EA8D
S21440411000231BB207EE903AF8EEE77AC7EE879A8E
S214404120604D19EE100AA84702460B465E485F4FA0
S214404130B84718EE900AA84702460B465C48B84770
S21440414018EE100AA84702460B465A48B8471BEED8
S214404150100AA84702460B465748B8471BEE900A37
S214404160A84702460B465548B84719EE900AA84756
S21440417002460B465248B84729EE097A68EEA87AB6
S21440418077EE277A28EE087A77EE877A17EE900A47
S214404190A8474C4B984742464B464B4DA8470028AD
S2144041A07FF4BAAE8DED04BACDED05BACDED069AE4
S2144041B08DED079ACDED088A8DED098A434B039322
S2144041C007AB93E807008DE8070004AB0ECB0BA8BF
S2144041D03F4DA8470BA92EA83E4B9847DDED2E9A9B
S2144041E0DDED2F8A9DED308A9DED319A68EE087A96
S2144041F0B6EE00BA3BEE67BA68EEA86A29EEA87A31
S21440420068EE097A7BEE666A16EE901A77EE277AA3
S21440421017EE900AB04707EE900A27EEAACA29EE94
S214404220887A68EE897A77EE677A77EEA77ABFEE75
S214404230007AF4EEC77AF1EE10FA7FF6AFAEB7EE3C
S214404240007AF4EEC77AF1EE10FAFFF66DAEDFEDC7
S21440425022BAA5E632A901F89D4D00231A461F480A
S21440426000681F4DA847B2E6002232A901F89D2DEE
S21440427013461A4800681A4DA847B0E632A90223EA
S21440428001F89D3D00231A4614480068144DA8477F
S214404290ABE600BF71304000193E40000000803859
S2144042A00000034315604000BCBD4000A1744000C0
S2144042B0C8BD4000D4BD4000E4BD4000F0BD400055
S2144042C0FCBD40002D464000A1654000CDCCCC3D15
S2144042D0A90D400091064000DB0FC93F240E402048
S2144042E06125400070B50C20124DA847124E0023A1
S2144042F04FF480724FF040513046104CA0470A2091
S214404300A847002301224FF040510D48A0470C20FB
S214404310A84700234FF080424FF040513046A04718
S2144043200B20A847002304224FF040510548A047E1
S21440433070BD00BF3D1A400000120E40D11740002D
S214404340000E0E4000100E402DE9F047134B9847E4
S2144043504FF480711248134B9847134F134EDFF8B3
S2144043604090002423464FF47A7221463868B0477E
S2144043700028F7D005244FF48078DFF838A041466F
S2144043804846D04732200A4DA84741464846054B46
S21440439098473220A847013CF1D1E2E7E542400089
S2144043A000120E40D9164000200E402045284000FE
S2144043B071304000DD16400000B58BB03D4B98474D
S2144043C03D4B98473D4B98473D4D3E4B1D603E4AC2
S2144043D03E4B1A603E4A3F4B1A604FF4E13304931B
S2144043E0C02305934FF40063069300240794089473
S2144043F00E20394B9847394A04A92846384B9847E7
S2144044002846384B98472846374B9847374E3368A8
S21440441021469868364DA847336821465868A847CD
S214404420336821469868A847032221460120314D2B
S214404430A847314B1860224601212020A8472F4B21
S2144044401860002832D00023039302930193009310
S2144044504FF4C0622A492B482B4CA047012802D073
S2144044602A482B4B984700230393029301930093CB
S2144044704FF4C06227492848234CA047012802D061
S2144044802648234B984700230393029301930093B7
S2144044904FF4C062224923481B4CA047012802D053
S2144044A021481B4B9847214B9847FEE72048214B15
S2144044B09847C8E745144000411540009511400014
S2144044C000800240DC0D4020913C4000D80D40204A
S2144044D0B53B4000D40D40203D1A400080D1F00846
S2144044E0391B40008D1B4000931B400018004020A5
S2144044F099754000E5244000200E4020240E4020C0
S21440450080BC400049434000252B40008CBC400006
S21440451065754000B0BC4000493E4000B4BC400019
S214404520D0BC4000D13A4000DCBC4000592D400091
S2144045305CBC4000A174400000B51C4A20F000431B
S214404540934283B018DDB3F1FF4F05DB014602F01E
S214404550B9F803B05DF804FB694600F0AFFB00F025
S2144045600302012A15D0022A0CD0CAB101220199B1
S214404570009801F0AFF9ECE7002100F061FD03B0D0
S2144045805DF804FB0199009800F05AFD00F10040E8
S214404590DFE70199009801F09DF900F10040D8E767
S2144045A00199009800F04CFDD3E700BFD80F493F73
S2144045B000B51D4A20F00043934283B019DDB3F1A5
S2144045C0FF4F05DB014602F07DF803B05DF804FBC3
S2144045D0694600F073FB00F00300012818D002285B
S2144045E00ED0D0B10199009800F02AFD00F10040AD
S2144045F0EBE70022002101F06DF903B05DF804FB03
S21440460001220199009801F065F900F10040DCE7CD
S2144046100199009800F014FDD7E70122019900980F
S21440462001F058F9D1E700BFD80F493F2DE9F04FC8
S2144046308BB004460D4600F0A9F8294B93F900A02C
S214404640BAF1FF3F06460F4612D022462B4620467A
S214404650294601F0CDFF834650B94FF000084FF091
S214404660000942464B462046294601F099FF20B9AC
S214404670304639460BB0BDE8F08F1A4BCDF820B027
S2144046800122CDE90445CDE902458DE80C00BAF19A
S214404690000F17D042464B464046494601F038FE8A
S2144046A0BAF1020FCDE906010ED102F017FB212325
S2144046B00360089B73B9DDE90667304639460BB0A0
S2144046C0BDE8F08FCDE90689684601F079F9002803
S2144046D0EFD1EAE702F002FB089B0360EBE700BF7E
S2144046E01400402024BE4000F0B5244E8BB0044653
S2144046F000F008F996F90030013305462FD02146E0
S214404700204602F0AFFA074648BB204601F076FA4C
S2144047104FF07E5102F09CFA08B3194B08970122DD
S21440472020468DE80C0001F075FC02460B46154805
S214404730CDE90423CDE9022301F044F996F900308F
S214404740022BCDE906010DD0684601F039F948B193
S214404750089B73B9DDE9060101F060FF054628466F
S2144047600BB0F0BD02F0BAFA21230360089B002B81
S214404770F0D002F0B3FA089B0360EBE71400402049
S2144047802CBE4000E0BD400000F006BA2DE9F843DC
S2144047905B4F8F4305460C4600F0928000290B463F
S2144047A002466FDD0F157BD0A7F2FF37C3F3130326
S2144047B0F80743F480135CD403EBD27100260B4415
S2144047C07F105200B64616204FF400110EEB01043F
S2144047D09C424FEAD2754FEA420203DC1B1B04EBB5
S2144047E0010E0E44013805EB43034FEA5101EDD16B
S2144047F0844620244FF0004109E020D003EBD275D8
S214404800013C4FEA51012B444FEA420220D0734507
S21440481001EB0C05F1DD002D05EB010C09DBF04644
S2144048209542A3EB0E0300D9013B521B0844C646F3
S214404830E4E7BCF1000FF2DB0EF10108F0E7954229
S214404840DCD8002D05EB010C44DB98460023ECE752
S214404850134313D14008731003F17F5303F500133D
S214404860F20703EB075948BF40F000404946BDE811
S214404870F8835B0003EBD27352009DE7411C2DD0BA
S2144048800130E7E7064621F000473E43EFD069BBDC
S2144048900F46D30A153F5205002BFAD0DE0220D42D
S2144048A0002400E004465B00DD0204F10100F9D577
S2144048B0C0F1200122FA01F10B433F1B824073E70F
S2144048C002460B4601F0FAFB2A46234601F044FA1C
S2144048D0BDE8F883BCF1000FAEDAB6E701362046F5
S2144048E0B9E7002020214FF0FF34E3E702460B46AD
S2144048F001F030FA02460B4601F00AFDB7E700BF6A
S2144049000000F07F2DE9F84320F00045B5F17E5FCA
S214404910044600F0C68012DCB5F17C5F064616DA27
S214404920B5F1485F80F2CB808B4901F0CDFE4FF069
S2144049307E5102F08DF950B12046BDE8F88301461D
S21440494001F0C0FE014602F07BF8BDE8F883204641
S21440495001F054F901464FF07E5001F0B3FE4FF09F
S2144049607C5101F0B9FF7D49044601F0B5FF7C4912
S21440497001F0AAFE214601F0AFFF7A4901F0A2FEFF
S214404980214601F0A9FF784901F09EFE214601F03C
S214404990A3FF764901F096FE214601F09DFF74493B
S2144049A001F092FE214601F097FF7249804620466C
S2144049B001F092FF704901F085FE214601F08CFF20
S2144049C06E4901F081FE214601F086FF6C4901F0F8
S2144049D079FE214601F080FF4FF07E5101F074FED3
S2144049E08146204600F0D8FA664B9D420746494627
S2144049F0404643DC02F024F839468046384601F00B
S214404A0063FE0146404601F067FF27F47F6525F0C8
S214404A100F0580462946284601F05EFF014620469F
S214404A2001F050FE39460446284601F04DFE014648
S214404A30204602F005F8014601F046FE014652487F
S214404A4001F040FE0146404601F03CFE2946044641
S214404A50284601F039FE01464C4801F033FE014637
S214404A60204601F02FFE0146484801F02BFE002E5E
S214404A703FF763AF00F10040BDE8F88301F0E0FF88
S214404A80394601F029FF394601F01EFE014601F085
S214404A901BFE3F4901F018FE01463E4801F012FE5B
S214404AA0E5E73C4901F018FF37490546204601F046
S214404AB013FF0146284601F007FEBDE8F88301468D
S214404AC001F00AFF2549054601F006FF244901F09A
S214404AD0FBFD294601F000FF224901F0F3FD29467F
S214404AE001F0FAFE204901F0EFFD294601F0F4FE00
S214404AF01E4901F0E7FD294601F0EEFE1C4901F093
S214404B00E3FD294601F0E8FE1A490646284601F02C
S214404B10E3FE194901F0D6FD294601F0DDFE1749AE
S214404B2001F0D2FD294601F0D7FE154901F0CAFD35
S214404B30294601F0D1FE4FF07E5101F0C5FD0146F9
S214404B40304601F07DFF214601F0C6FE214601F0C9
S214404B50BBFDBDE8F88300BFCAF2497108EF1138C3
S214404B60047F4F3A4611243DA80A4E3E90B0A63EDA
S214404B70ABAA2A3E2EC69D3D6133303F2D5701409D
S214404B8039D119409999793F2EBD3BB3DB0F493F48
S214404B902EBD3B33DB0FC93FF8B50C4621F0004134
S214404BA0B1F1FF4F034614DC20F00046B6F1FF4F4C
S214404BB007460EDCB4F17E5F3DD0A51705F0020532
S214404BC045EAD07556B9022D30D0032D30D1324843
S214404BD0F8BD1946204601F077FDF8BD01B3B1F1A6
S214404BE0FF4F2CD0B6F1FF4F1AD0711AC9153C2989
S214404BF01ADC002C39DB2146184601F021FF00F074
S214404C00FDFF00F0E5FE012D2CD0022D22D0002D18
S214404C102FD0224901F058FD214901F053FDF8BD3F
S214404C20002F06DB1F48F8BD1E48ECE71C48F8BDC1
S214404C30F8BD1D48F8BDBDE8F84000F0C9BEB6F165
S214404C40FF4F17D0022DF1D0032DC0D0012D19D023
S214404C500020F8BD114901F037FD0146104801F02B
S214404C6031FDF8BD00F10040F8BD3C31C3DA00200C
S214404C70C9E7F8BD022D0CD0032D08D0012D04D075
S214404C800A48F8BD4FF00040F8BD0948F8BD09484D
S214404C90F8BD0948F8BD00BFDB0F49C02EBDBB3389
S214404CA0DB0F4940DB0FC93FDB0FC9BFDB0F493F76
S214404CB0DB0F49BFE4CB16C0E4CB16402DE9F04FDE
S214404CC0A84A20F00044944289B06EDDA64A944239
S214404CD006460D461CDC0028A44940F3FC8001F043
S214404CE0F1FCA34B24F00F049C4206466CD0A1492D
S214404CF001F0E8FC01462860304601F0E3FC9D499F
S214404D0001F0E0FC01276860384609B0BDE8F08F46
S214404D10994A94426ADDB4F1FF4F4EDAE715863F72
S214404D20A4EBC754204601F0B3FF01F081FD0346D3
S214404D3001462046059301F0C5FC4FF0874101F03F
S214404D40CBFD804601F0A4FF01F072FD014604460B
S214404D504046069401F0B6FC4FF0874101F0BCFD9A
S214404D600021079001F04CFF002800F0CB80204641
S214404D70002101F045FF002814BF012302237F4A8B
S214404D80019202213A46009105A8294600F01CFAF5
S214404D90002E07460DDA95E80C0002F1004203F1BA
S214404DA0004347422A606B6003E0002208604A6086
S214404DB00027384609B0BDE8F08F014601F082FC76
S214404DC0002768602860F4E76D4901F07BFC6D4978
S214404DD0044601F077FC01462860204601F072FC4C
S214404DE0684901F06FFC01276860E2E700F006FFC3
S214404DF06549804601F070FD4FF07C5101F064FC3F
S214404E0001F046FF074601F013FD5849834601F07E
S214404E1063FD0146404601F055FC564981465846DA
S214404E2001F05AFD1F2F824621DC584A791E24F095
S214404E30FF0352F82120934219D05146484601F0CC
S214404E4041FC8046C5F800804146484601F03AFCA1
S214404E50514601F037FC002E6860AADA08F1004897
S214404E6000F10040C5F8008068607F42A1E75146E7
S214404E70484601F027FCE215C0F3C753D31A082B67
S214404E808046DFDD3E490392584601F025FD8046C8
S214404E900146484601F016FC01460446484601F0E5
S214404EA011FC414601F00EFC36498046584601F05A
S214404EB013FD414601F006FC01468246204601F0BD
S214404EC001FC039AC0F3C753D21A192A80462EDC37
S214404ED02860A146B8E701F0F7FB254B24F00F0405
S214404EE09C42064610D0234901F0EEFB014628605E
S214404EF0304601F0E7FB1F4901F0E6FB4FF0FF3775
S214404F00686056E703233AE71D4901F0DDFB1D497B
S214404F10044601F0D9FB01462860204601F0D2FB4A
S214404F20184901F0D1FB4FF0FF37686041E7184958
S214404F30584601F0D1FC01468046204601F0C2FBAF
S214404F4001468146204601F0BDFB414601F0BAFBD2
S214404F5010490446584601F0BFFC214601F0B2FB1A
S214404F6082466AE7D80F493FE3CB1640800FC93FD9
S214404F70D00FC93F43443537800F4943B4BE400045
S214404F800044353708A3852E84F9223F34BE4000BE
S214404F9000A3852E32318D2420F00042B2F1FF4F1F
S214404FA0F8B504462ED262B3002803463DDBB2F580
S214404FB0000F4FEAE0502CD37F38C3F3160343F478
S214404FC00003C20748BF5B00002647105B0031461F
S214404FD019244FF080728D189D4202DC5B1BA91885
S214404FE01644013C4FEA43034FEA5202F3D113B151
S214404FF0013626F00106701000F17C5000EBC750D9
S214405000F8BDF8BD014601F067FC214601F05CFBA7
S214405010F8BD14F4000201D00EE00A465B001C0204
S21440502002F10101F9D5801AC6E7014601F04AFBB4
S214405030014601F005FDF8BD4FF0FF32F3E700BF33
S2144050402DE9F84320F00044B4F1485F06460F4689
S21440505049DA01F01DFE002800F09D8031463046BA
S21440506001F03AFC4E49054601F036FC4D4901F048
S2144050702BFB294601F030FC4B4901F023FB294627
S21440508001F02AFC494901F01FFB294601F024FCA7
S214405090474901F017FB294601F01EFC454901F03F
S2144050A013FB294601F018FC80464FF07C512846F9
S2144050B001F012FC41460446284601F00DFC3946F4
S2144050C00546304601F008FC0146284601F0FAFA4B
S2144050D00146204601F0F6FA01464FF07E5001F0B8
S2144050E0F1FABDE8F883014601F0F6FB2C49054687
S2144050F001F0F2FB2B4901F0E7FA294601F0ECFB00
S214405100294901F0DFFA294601F0E6FB274901F07C
S214405110DBFA294601F0E0FB254901F0D3FA29469F
S21440512001F0DAFB234901F0CFFA294601F0D4FB1F
S214405130214B9C428046B8DD204B9C4227DC04F144
S2144051407F4421464FF07E5001F0BCFA81464FF036
S2144051507C51284601F0C0FB214601F0B3FA414697
S2144051600446284601F0B8FB39460546304601F06D
S214405170B3FB0146284601F0A5FA0146204601F059
S214405180A1FA0146484601F09DFABDE8F883DFF8EB
S21440519034900B4CDBE74FF07E50BDE8F88300BF01
S2144051A04ED747ADF6740F317CF29334010DD037AD
S2144051B0610BB63AABAA2A3D9999993E0000483F02
S2144051C00000903E0000383F2DE9F04FDDB0904C97
S2144051D00893013B0193D31E48BF131D669D07915C
S2144051E0DB1023EAE37354F825400993194601334C
S2144051F0A2EBC3030594019A0493059B02909C1866
S214405200A1EB020617D43444002501341FAFDDF865
S2144052109C8108E058F8260001F00AFB0136A642B9
S21440522047F8040F07D0002EF4DA01362846A64287
S21440523047F8040FF7D1059B002B28DB089B9E0000
S214405240029B351F1D4420AB1E44059B48AA4FF0C9
S214405250000902EB830847AF019B002BC0F2B982DE
S214405260029BB3461C1FCA465BF8041D54F8040F45
S21440527001F032FB0146504601F026FAAC42824627
S214405280F2D147F804AF474506F10406E4D1059845
S2144052900899029C6FF04042034613449B000A4420
S2144052A00DF1300A191F04EB820553440AEB010244
S2144052B00A920B9380464FEA88035CAA0393D3185E
S2144052C0B8F1000F53F8509C22DD02EB8804543CA2
S2144052D00BAE47AF4FF06E51484601F0FDFA01F075
S2144052E0D7FC01F0A5FA4FF08741834601F0F4FA67
S2144052F00146484601F0E6F901F0CAFC54F80419A4
S21440530046F8040F584601F0DFF9BC428146E1D129
S214405310049E4846314600F0BBFC4FF078510446A8
S21440532001F0DAFA00F06EFC4FF0824101F0D4FA58
S2144053300146204601F0C6F9044601F0A9FC814624
S214405340069001F075FA0146204601F0BBF9002EA2
S214405350074640F3E68008F1FF31C6F108035AF8E5
S214405360212042FA03F000FA03F3D31A4A46C6F164
S214405370070402444AF82130069243FA04F4002C0B
S2144053805BDD069BB8F1000F03F10103069340F383
S2144053903B82DAF80060002E40F09482B8F1010FAC
S2144053A040F355825246012352F8046F002E00F017
S2144053B04A82591CC6F5807688454AF8236014DD33
S2144053C05AF821200233C2F1FF0298454AF82120BC
S2144053D00BDD039A52440AEB830391461A68C2F1E6
S2144053E0FF0243F8042B4B45F8D1049B002B11DDFC
S2144053F0049B012B4FF0010640F00E8208F1FF326D
S2144054005AF8223003F07F034AF822300EE200BFFB
S214405410F8C14000022C10D139464FF07E5001F0C2
S21440542051F9074604994FF07E5000F031FC014692
S214405430384601F047F9022407460021384601F075
S214405440DFFB002800F08380059B08F1FF37BB4256
S2144054500FDC08F18043013B0B980AEB83030022E4
S21440546053F80419834242EA0102F9D1002A40F077
S2144054709D80059B013B5AF82330002B40F0F48179
S2144054800A9A012352F8041901330029FAD04344FA
S2144054901A46069308F10103934237DC0899099AA5
S2144054A001EB080720A901EB870706999E1801EB38
S2144054B0020906F18046679A013E02EB860648AA34
S2144054C002EB8308679B03EB8903039356F8040FAC
S2144054D001F0AEF9019B47F8040B002B19DB029B49
S2144054E0BB461C1F4FF000095BF8041D54F8040F20
S2144054F001F0F2F90146484601F0E6F8AC42814632
S214405500F2D1039B48F8049B9E42DFD1DDF8188019
S214405510D1E6039B4FF000099E4248F8049BD5D144
S214405520F4E705D108F1FF335AF82340241226E762
S2144055304FF07C5101F082FB002840F05381044636
S2144055400021384601F05CFB00287FF47DAF049EC6
S2144055503846714200F09CFB4FF08741A146044616
S21440556001F06CFB002800F08D814FF06E51204614
S21440557001F0B2F901F08CFB01F05AF94FF0874187
S214405580054601F0A9F90146204601F09BF801F0D6
S2144055907FFB4AF82800284601F07AFB08F101070D
S2144055A03346083304934AF8270012E0049A5AF820
S2144055B02730083AA14604925BB907F18043013B85
S2144055C00AEB830353F80419013F083A0029F9D03F
S2144055D0049204994FF07E5000F05AFB002F044688
S2144055E0C0F25C81BB0048A91A1D01EB0308019379
S2144055F002924FF06E560AEB020B08F104055BF878
S214405600040D01F015F9214601F066F9314645F8DA
S214405610040D204601F060F9D3450446EFD100263C
S214405620DDF814B00397A8F10408B246BBF1000FAA
S214405630B8BF002515DBA54EA548474600250024E3
S21440564003E054450DDC56F8040F57F8041F01F0EC
S21440565043F90146284601F037F80134A34505468C
S214405660EFDA5CAB03EB8A03A8F1040843F8A05CCE
S21440567046AB43450AF1010AD8D1669B039F032BEC
S2144056805AD8DFE803F08E5F5F02002F40F30481B4
S214405690019A5CA98B1834AC53F8A06CA51855F841
S2144056A004AC3146504601F00FF88046014650465D
S2144056B001F008F8314601F007F8286045F8048DF7
S2144056C0AC424646EBD1012F40F3E680019A5CA9F6
S2144056D08B18144453F8A06C25460DF1D40A55F89F
S2144056E0048C3146404600F0EFFF074601464046F0
S2144056F000F0E8FF314600F0E7FF286045F8047DFB
S214405700AA453E46EBD10020043436AD54F8041D7D
S21440571000F0DAFFA542F9D1B9F1000F00F0B980E8
S214405720349A359B00F1004002F1004203F10043F9
S214405730079CA06022606360069B03F007005DB094
S214405740BDE8F08F019C34AD04342C44002054F85E
S214405750041D00F0B9FFAC42F9D1B9F1000F00F0DA
S2144057608580079A00F1004301461360349800F0A4
S214405770A9FF002F0BDD34AD0124013455F8041F7A
S21440578000F0A2FFA742F8DAB9F1000F01D000F10D
S2144057900040079B5860069B03F007005DB0BDE8DD
S2144057A0F08F029B34AD2B4400201C4654F8041D59
S2144057B000F08AFFA542F9D1B9F1000F01D000F1FF
S2144057C00040079B1860069B03F007005DB0BDE8ED
S2144057D0F08FCA4647F804AF474506F104067FF403
S2144057E03BAD54E5069BB8F1000F03F10103069369
S2144057F0C8BF02243FF7CDAD39464FF07E5000F08B
S21440580061FF0224074618E6049B002B22DD002693
S214405810049B012B3FF4F2AD022B07D108F1FF3277
S2144058205AF8223003F03F034AF82230022C7FF425
S21440583004AE39464FF07E5000F044FF0746002E37
S2144058403FF4FBADEEE5013398457FF4ADAD049BE8
S214405850002BDDDC022C7FF4F0AD39464FF07E5055
S21440586000F030FF0746E8E5012310E6079B0146B7
S2144058701860349800F026FF002F3FF77CAF079B58
S214405880586088E7204601F003FA47464AF8280061
S2144058909FE6349A359B4BE700203DE7669B032BFB
S2144058A03FF64AAF01A252F823F000BFC15840006D
S2144058B0BD584000BD5840009958400000204CE775
